:100000000C945D000C9485000C9485000C94850084
:100010000C9485000C9485000C9485000C9485004C
:100020000C9485000C9485000C9485000C9485003C
:100030000C9485000C9485000C9485000C9485002C
:100040000C94E6030C9485000C94B4030C948E037A
:100050000C9485000C9485000C9485000C9485000C
:100060000C9430040C94850000000008000201008C
:100070000003040700000000000000000000000072
:10008000250028002B0000000000240027002A0083
:10009000040404040404040402020202020203032E
:1000A0000303030301020408102040800102040836
:1000B00010200102040810204F0511241FBECFEFAD
:1000C000D8E0DEBFCDBF11E0A0E0B1E0EAE6FDE0A0
:1000D00002C005900D92AE35B107D9F722E0AEE52A
:1000E000B1E001C01D92A63AB207E1F710E0CDE5FC
:1000F000D0E004C02197FE010E94AD06CC35D107A7
:10010000C9F70E9488050C94B3060C940000E09196
:10011000FB01F091FC01309729F01092F60110924A
:10012000F50109940895CF93DF93AC01E091F901B3
:10013000F091FA013097F1F09091F8018091F70178
:100140009817C0F090E0292F30E02617370754F4B5
:10015000D901A25ABE4F240F351FE90128812C93E3
:100160009F5FF1CF1092F8016093F701CB01DF910F
:10017000CF910994DF91CF910895AF92BF92CF9222
:10018000DF92EF92FF920F931F93CF93DF936C0157
:100190007B018B01040F151FEB015E01AE18BF0838
:1001A000C017D10759F06991D601ED91FC910190EA
:1001B000F081E02DC6010995892B79F7C501DF9102
:1001C000CF911F910F91FF90EF90DF90CF90BF9054
:1001D000AF900895FC01538D448D252F30E0842F7E
:1001E00090E0821B930B541710F0CF96089501975F
:1001F0000895FC01918D828D981761F0A28DAE0F4C
:10020000BF2FB11D5D968C91928D9F5F9F73928FD2
:1002100090E008958FEF9FEF0895FC01918D828DFE
:10022000981731F0828DE80FF11D858D90E00895CB
:100230008FEF9FEF0895FC01918D228D892F90E023
:10024000805C9F4F821B91098F73992708958DEFD2
:1002500091E00E941B0121E0892B09F420E0822F0C
:10026000089580E090E0892B29F00E9427018111F8
:100270000C9400000895FC01A48DA80FB92FB11DA6
:10028000A35ABF4F2C91848D90E001968F739927CC
:10029000848FA689B7892C93A089B1898C918370AA
:1002A00080648C93938D848D981306C00288F389A3
:1002B000E02D80818F7D80830895EF92FF920F93D0
:1002C0001F93CF93DF93EC0181E0888F9B8D8C8D02
:1002D00098131AC0E889F989808185FF15C09FB7F6
:1002E000F894EE89FF896083E889F98980818370B9
:1002F000806480839FBF81E090E0DF91CF911F9168
:100300000F91FF90EF900895F62E0B8D10E00F5F88
:100310001F4F0F731127E02E8C8D8E110CC00FB65E
:1003200007FCFACFE889F989808185FFF5CFCE01F6
:100330000E943B01F1CFEB8DEC0FFD2FF11DE35A35
:10034000FF4FF0829FB7F8940B8FEA89FB89808179
:100350008062CFCFCF93DF93EC01888D8823B9F0F3
:10036000AA89BB89E889F9898C9185FD03C08081C0
:1003700086FD0DC00FB607FCF7CF8C9185FFF2CF3D
:10038000808185FFEDCFCE010E943B01E9CFDF9157
:10039000CF91089590E0FC01E859FF4F2491FC01B2
:1003A000EC55FF4F3491FC01E057FF4FE491EE23F1
:1003B000C9F0222339F0233001F1A8F4213019F1DA
:1003C000223029F1F0E0EE0FFF1FE458FF4FA59116
:1003D000B4918FB7F894EC91611126C030953E230B
:1003E0003C938FBF08952730A9F02830C9F02430FE
:1003F00049F7809180008F7D03C0809180008F77C6
:1004000080938000DFCF84B58F7784BDDBCF84B548
:100410008F7DFBCF8091B0008F778093B000D2CFDB
:100420008091B0008F7DF9CF3E2BDACF3FB7F894A3
:100430008091EA019091EB01A091EC01B091ED0166
:1004400026B5A89B05C02F3F19F00196A11DB11D2F
:100450003FBFBA2FA92F982F8827BC01CD01620F6B
:10046000711D811D911D42E0660F771F881F991F26
:100470004A95D1F708958F929F92AF92BF92CF92F3
:10048000DF92EF92FF924B015C010E9416026B011A
:100490007C010E9416026C197D098E099F09683E35
:1004A000734081059105A8F321E0821A9108A10803
:1004B000B10888EEC80E83E0D81EE11CF11C81143F
:1004C0009104A104B10429F7FF90EF90DF90CF9041
:1004D000BF90AF909F908F90089585ED8093BC0062
:1004E0008091BC0084FDFCCF1092F401089520910E
:1004F0009E01260F3327331F21323105ECF4209162
:10050000F401FC0190E080E0243069F082E008957D
:10051000A0919E012191AC0142585E4FA40FB52FCE
:10052000B11D2C930196861798F380919E01680F58
:1005300060939E0180E0089581E008950895E09120
:10054000F8018091F701E81730F4F0E0E25AFE4F2D
:10055000808190E008958FEF9FEF08959091F801CA
:100560008091F7012FEF3FEF981748F4E92FF0E063
:10057000E25AFE4F208130E09F5F9093F801C9015D
:1005800008958091F7019091F801891B990B0895C6
:10059000CF93DF93CB01EA01642F0E947702CE0153
:1005A000DF91CF910895CF93DF931F92CDB7DEB740
:1005B000698361E0CE0101960E94770281E090E0BC
:1005C0000F90DF91CF91089590E080E0089561E170
:1005D0008AE992E00C94D302FC0101900020E9F733
:1005E0003197AF01481B590BBC018DEF91E00C9482
:1005F000BD008F929F92AF92BF920F931F93CF93A4
:10060000DF93CDB7DEB7A1970FB6F894DEBF0FBE6C
:10061000CDBF19A2423008F44AE08E010F5D1F4F92
:10062000842E912CB12CA12CA50194010E948B0643
:10063000E62FB901CA01EA30F4F4E05DD801EE9387
:100640008D01232B242B252B79F790E080E0109748
:1006500019F0CD010E94EC02A1960FB6F894DEBF0E
:100660000FBECDBFDF91CF911F910F91BF90AF9083
:100670009F908F900895E95CE1CFCF93DF930E9424
:10068000EC02EC0184E291E00E94EC028C0F9D1FD1
:10069000DF91CF910895CF92DF92EF92FF926C019C
:1006A00087E291E00E94EC020D2C000CEE08FF089E
:1006B0004AE0C701B601F7FE0DC06DE28DEF91E093
:1006C0000E945D0166277727CB016C197D098E0991
:1006D0009F094AE00E94F90282E391E00E943D03F3
:1006E0009091F7018091F801981781F08AE992E0E2
:1006F0000E94AE02BC01990F880B990B40E10E9449
:10070000F90284E291E00E94EC02EACF8EE391E0EC
:10071000FF90EF90DF90CF900C943D031F920F92CB
:100720000FB60F9211242F933F934F935F936F93C4
:100730007F938F939F93AF93BF93EF93FF938DEF2F
:1007400091E00E943B01FF91EF91BF91AF919F918A
:100750008F917F916F915F914F913F912F910F906A
:100760000FBE0F901F9018951F920F920FB60F9209
:1007700011242F938F939F93EF93FF93E0910D029A
:10078000F0910E028081E0911302F091140282FD3B
:100790001BC09081809116028F5F8F73209117028A
:1007A000821741F0E0911602F0E0E350FE4F958F82
:1007B00080931602FF91EF919F918F912F910F904F
:1007C0000FBE0F901F9018958081F4CF1F920F924B
:1007D0000FB60F9211242F933F938F939F93AF9354
:1007E000BF938091E6019091E701A091E801B0915B
:1007F000E9013091E50123E0230F2D3758F50196EB
:10080000A11DB11D2093E5018093E6019093E701BE
:10081000A093E801B093E9018091EA019091EB0186
:10082000A091EC01B091ED010196A11DB11D809345
:10083000EA019093EB01A093EC01B093ED01BF911D
:10084000AF919F918F913F912F910F900FBE0F907D
:100850001F90189526E8230F0296A11DB11DD2CF37
:100860001F920F920FB60F9211242F933F934F9325
:100870005F936F937F938F939F93AF93BF93EF9308
:10088000FF938091B900887F803609F44AC0F0F563
:10089000883209F4A7C018F5803109F49BC0B8F478
:1008A000882309F4F9C0883009F494C0FF91EF91CE
:1008B000BF91AF919F918F917F916F915F914F9178
:1008C0003F912F910F900FBE0F901F901895883178
:1008D00009F488C0803251F78093C10114C080347C
:1008E00009F49DC040F48033B9F38833F9F680935E
:1008F000C10185ECB0C0803509F485C0883509F4A4
:1009000096C0883499F60E946D02D0CF883909F4D8
:100910008CC038F5883729F050F4883611F08037CC
:1009200029F683E08093F4011092C00157C0883803
:1009300009F47BC0803919F0803809F0B7CF809175
:10094000C001803208F071C0E091C00181E08E0FDB
:100950008093C0018091BB00F0E0E056FE4F8083A1
:100960003DC0803B39F0E0F4803A09F479C0883A20
:1009700009F09CCF84E08093F40110929F011092C3
:100980009E01E091F001F091F101099580919E01A5
:1009900081110FC081E080939E0110927E0109C0F9
:1009A000803C09F4A6CF883C09F4A3CF883B09F02A
:1009B0007DCFE0919F0181E08E0F80939F01F0E059
:1009C000E258FE4F80818093BB0090919F018091FF
:1009D0009E0129C08091E4018093BB0085EC809347
:1009E000BC0064CF9091E3018091E201981758F523
:1009F000E091E30181E08E0F8093E301F0E0EE539C
:100A0000FE4F8081E9CFE091E30181E08E0F80937A
:100A1000E3018091BB00F0E0EE53FE4F80839091A4
:100A2000E3018091E2019817C8F285E8D8CFE09100
:100A3000E30181E08E0F8093E3018091BB00F0E041
:100A4000EE53FE4F80838091F30181115CCF81E0F2
:100A50008093F20184EA8093BC001092F40126CFC7
:100A600085EC8093BC001092F4018091C00180322B
:100A700030F4E091C001F0E0E056FE4F108260914A
:100A8000C00170E0E091EE01F091EF0180EA91E0A9
:100A900009951092C0010ACF1092C10134CFEDEF39
:100AA000F1E01382128288EE93E0A0E0B0E084834C
:100AB0009583A683B78324E031E03183208325EC3E
:100AC00030E03587248724EC30E03787268720EC18
:100AD00030E0318B208B21EC30E0338B228B22EC09
:100AE00030E0358B248B26EC30E0378B268B118E53
:100AF000128E138E148EEAE9F2E01382128284833E
:100B00009583A683B78386E191E0918380830895DE
:100B1000789484B5826084BD84B5816084BD85B5D8
:100B2000826085BD85B5816085BD80916E008160E4
:100B300080936E001092810080918100826080938A
:100B4000810080918100816080938100809180008C
:100B50008160809380008091B10084608093B100B7
:100B60008091B00081608093B00080917A008460B1
:100B700080937A0080917A00826080937A008091DD
:100B80007A00816080937A0080917A0080688093F7
:100B90007A001092C100E1EBF0E02491EDE9F0E081
:100BA0008491882399F090E0880F991FFC01EA57FF
:100BB000FF4FA591B491FC01E458FF4F85919491AA
:100BC0008FB7F894EC91E22BEC938FBF1092F80161
:100BD0001092F7011092F6011092F5011092F401B3
:100BE00081E08093F3011092F20161E082E10E94C2
:100BF000CA0161E083E10E94CA018091B9008E7F41
:100C00008093B9008091B9008D7F8093B90088E40A
:100C10008093B80085E48093BC0087E890E09093CF
:100C2000F1018093F00183E990E09093EF018093CC
:100C3000EE0182E28093BA008BE493E09093FA0194
:100C40008093F90187EE92E09093FC018093FB0181
:100C5000E0910D02F0910E0282E08083E0910902A2
:100C6000F0910A021082E0910B02F0910C0280E1F7
:100C7000808310921502E0911102F091120286E039
:100C80008083E0910F02F091100280818061808367
:100C9000E0910F02F0911002808188608083E091E2
:100CA0000F02F0911002808180688083E0910F0232
:100CB000F091100280818F7D808383E491E00E9417
:100CC000EC0240E161E170E080E090E00E94F90216
:100CD00087E591E00E943D03C0E0D0E061E08DE057
:100CE0000E94CA0162E370E080E090E00E943B0253
:100CF00060E08DE00E94CA0168EC70E080E090E066
:100D00000E943B02209751F30E942701882331F370
:100D10000E940000E3CFA1E21A2EAA1BBB1BFD011B
:100D20000DC0AA1FBB1FEE1FFF1FA217B307E407CA
:100D3000F50720F0A21BB30BE40BF50B661F771F22
:100D4000881F991F1A9469F7609570958095909502
:100D50009B01AC01BD01CF010895EE0FFF1F05906F
:0A0D6000F491E02D0994F894FFCF00
:100D6A00000000005D01BD00EA00AA011B01F900B4
:100D7A000D0100000000D302C802E4029E02C10273
:100D8A00AE029F020D0A00526563656976696E6755
:100D9A00200020627974652873292E2E2E00446F54
:100DAA006E65000A44657669636520617420616432
:0E0DBA006472657373200020726561647900B5
:107E0000112484B714BE81FFF0D085E080938100F7
:107E100082E08093C00088E18093C10086E0809377
:107E2000C20080E18093C4008EE0C9D0259A86E02C
:107E300020E33CEF91E0309385002093840096BBD3
:107E4000B09BFECF1D9AA8958150A9F7CC24DD24C4
:107E500088248394B5E0AB2EA1E19A2EF3E0BF2EE7
:107E6000A2D0813461F49FD0082FAFD0023811F036
:107E7000013811F484E001C083E08DD089C08234E0
:107E800011F484E103C0853419F485E0A6D080C0E4
:107E9000853579F488D0E82EFF2485D0082F10E0AE
:107EA000102F00270E291F29000F111F8ED06801E7
:107EB0006FC0863521F484E090D080E0DECF843638
:107EC00009F040C070D06FD0082F6DD080E0C81688
:107ED00080E7D80618F4F601B7BEE895C0E0D1E017
:107EE00062D089930C17E1F7F0E0CF16F0E7DF06D8
:107EF00018F0F601B7BEE89568D007B600FCFDCFD4
:107F0000A601A0E0B1E02C9130E011968C91119780
:107F100090E0982F8827822B932B1296FA010C0160
:107F200087BEE89511244E5F5F4FF1E0A038BF0790
:107F300051F7F601A7BEE89507B600FCFDCF97BE46
:107F4000E89526C08437B1F42ED02DD0F82E2BD052
:107F50003CD0F601EF2C8F010F5F1F4F84911BD097
:107F6000EA94F801C1F70894C11CD11CFA94CF0C13
:107F7000D11C0EC0853739F428D08EE10CD085E9AC
:107F80000AD08FE07ACF813511F488E018D01DD067
:107F900080E101D065CF982F8091C00085FFFCCF94
:107FA0009093C60008958091C00087FFFCCF809118
:107FB000C00084FD01C0A8958091C6000895E0E648
:107FC000F0E098E1908380830895EDDF803219F02E
:107FD00088E0F5DFFFCF84E1DECF1F93182FE3DFCA
:107FE0001150E9F7F2DF1F91089580E0E8DFEE27F6
:047FF000FF270994CA
:027FFE00040479
:0400000300007E007B
:00000001FF
