:100000000C945D000C9485000C9485000C94850084
:100010000C9485000C9485000C9485000C9485004C
:100020000C9485000C9485000C9485000C9485003C
:100030000C9485000C9485000C9485000C9485002C
:100040000C9434070C9485000C9402070C94DC0685
:100050000C9485000C9485000C9485000C9485000C
:100060000C947E070C94850000000008000201003B
:100070000003040700000000000000000000000072
:10008000250028002B0000000000240027002A0083
:10009000040404040404040402020202020203032E
:1000A0000303030301020408102040800102040836
:1000B0001020010204081020E90811241FBECFEF10
:1000C000D8E0DEBFCDBF11E0A0E0B1E0E2E8FAE1A8
:1000D00002C005900D92AE33B107D9F722E0AEE32E
:1000E000B1E001C01D92A63FB207E1F710E0CDE5F7
:1000F000D0E004C02197FE010E94390DCC35D10714
:10010000C9F70E9429090C943F0D0C94000090E05F
:10011000FC01EC55FF4F249180579F4FFC018491C7
:10012000882399F090E0880F991FFC01EA57FF4F50
:10013000A591B491FC01E458FF4F859194918FB73C
:10014000F894EC91E22BEC938FBF0895E091DB01E2
:10015000F091DC01309729F01092D6011092D50170
:1001600009940895CF93DF93AC01E091D901F09108
:10017000DA013097F1F09091D8018091D70198176A
:10018000C0F090E0292F30E02617370754F4D9014A
:10019000A25CBE4F240F351FE90128812C939F5F7D
:1001A000F1CF1092D8016093D701CB01DF91CF91AD
:1001B0000994DF91CF910895AF92BF92CF92DF92D1
:1001C000EF92FF920F931F93CF93DF936C017B010C
:1001D0008B01040F151FEB015E01AE18BF08C0179D
:1001E000D10759F06991D601ED91FC910190F08110
:1001F000E02DC6010995892B79F7C501DF91CF91D3
:100200001F910F91FF90EF90DF90CF90BF90AF9034
:100210000895FC01538D448D252F30E0842F90E00C
:10022000821B930B541710F0CF96089501970895F1
:10023000FC01918D828D981761F0A28DAE0FBF2FBA
:10024000B11D5D968C91928D9F5F9F73928F90E010
:1002500008958FEF9FEF0895FC01918D828D98177F
:1002600031F0828DE80FF11D858D90E008958FEFBC
:100270009FEF0895FC01918D228D892F90E0805C85
:100280009F4F821B91098F73992708958DED91E0FF
:100290000E943A0121E0892B09F420E0822F089581
:1002A00080E090E0892B29F00E94460181110C9496
:1002B00000000895FC01A48DA80FB92FB11DA35A09
:1002C000BF4F2C91848D90E001968F739927848F76
:1002D000A689B7892C93A089B1898C918370806499
:1002E0008C93938D848D981306C00288F389E02D3A
:1002F00080818F7D80830895EF92FF920F931F93EB
:10030000CF93DF93EC0181E0888F9B8D8C8D9813C8
:100310001AC0E889F989808185FF15C09FB7F894D4
:10032000EE89FF896083E889F98980818370806420
:1003300080839FBF81E090E0DF91CF911F910F916B
:10034000FF90EF900895F62E0B8D10E00F5F1F4F7A
:100350000F731127E02E8C8D8E110CC00FB607FC89
:10036000FACFE889F989808185FFF5CFCE010E9417
:100370005A01F1CFEB8DEC0FFD2FF11DE35AFF4F2A
:10038000F0829FB7F8940B8FEA89FB8980818062A5
:10039000CFCFCF93DF93EC01888D8823B9F0AA8962
:1003A000BB89E889F9898C9185FD03C0808186FD30
:1003B0000DC00FB607FCF7CF8C9185FFF2CF80817F
:1003C00085FFEDCFCE010E945A01E9CFDF91CF9199
:1003D000089590E0FC01E859FF4F2491FC01EC5591
:1003E000FF4F3491FC01E057FF4FE491EE23C9F039
:1003F000222339F0233001F1A8F4213019F1223001
:1004000029F1F0E0EE0FFF1FE458FF4FA591B491E2
:100410008FB7F894EC91611126C030953E233C9340
:100420008FBF08952730A9F02830C9F0243049F74C
:10043000809180008F7D03C0809180008F778093B2
:100440008000DFCF84B58F7784BDDBCF84B58F7D0F
:10045000FBCF8091B0008F778093B000D2CF809196
:10046000B0008F7DF9CF3E2BDACF3FB7F894809163
:10047000CA019091CB01A091CC01B091CD0126B5DC
:10048000A89B05C02F3F19F00196A11DB11D3FBFCC
:10049000BA2FA92F982F8827BC01CD01620F711D9B
:1004A000811D911D42E0660F771F881F991F4A9595
:1004B000D1F708950F931F93FC0182859385892BB3
:1004C00071F481E004851585268537854089518939
:1004D00062897389041715072607370709F080E03A
:1004E0001F910F9108952F923F924F925F926F92BA
:1004F0007F928F929F92AF92BF92CF92DF92EF92B4
:10050000FF920F931F93CF93DF9300D000D000D0C2
:10051000CDB7DEB79E838D83FC0182859385892BC1
:1005200009F052C080899189A289B3894485558593
:1005300066857785841B950BA60BB70B18161906D5
:100540001A061B06A4F581E090E09387828760E09D
:1005500081810E94E901ED81FE8184A195A1A6A17E
:10056000B7A184A795A7A6A7B7A70E943502ED81DA
:10057000FE8160AB71AB82AB93AB80E026960FB689
:10058000F894DEBF0FBECDBFDF91CF911F910F91C9
:10059000FF90EF90DF90CF90BF90AF909F908F90A3
:1005A0007F906F905F904F903F902F900895892B90
:1005B0008A2B8B2B09F429C18FEF9FEFED81FE81F0
:1005C0009387828761E0C4CF0E9435024B015C01B2
:1005D000ED81FE8164A575A586A597A50E948B0B6C
:1005E000ED81FE8100A911A922A933A97501640139
:1005F000C01AD10AE20AF30A970186010617170703
:100600002807390708F4B9CF61E0ED81FE818081C8
:100610000E94E90183E090E00197F1F7ED81FE810E
:1006200002851385C801012E000CAA0BBB0B448563
:10063000558566857785840F951FA61FB71F84870C
:100640009587A687B787C4A4D5A4E6A4F7A4C4AAAF
:10065000D5AAE6AAF7AA80AA91AAA2AAB3AA8088D4
:100660009188A288B388881A990AAA0ABB0A312CF1
:1006700022242394B7FE0BC0B094A094909480944D
:10068000811C911CA11CB11C33243394212CA70183
:100690009601C701B6010E94710C69837A838B832E
:1006A0009C83ED81FE81248D358D468D578D0E9472
:1006B000710C9B01AC0165EA74ED88EE92E50E9435
:1006C000120B2B013C0120E030E0A9010E946C0CD0
:1006D00020E030E040E05FE387FD4CC0C301B201A1
:1006E0000E94A10A0E94840B0130110509F08FC0FD
:1006F000222009F444C086169706A806B9060CF411
:10070000A1C0ED81FE81208D318D428D538DC701B9
:10071000B6010E940D0B87FD95C0ED81FE8120A1E1
:1007200031A142A153A169817A818B819C810E9470
:10073000710CA70196010E94710C9B01AC01C701CD
:10074000B6010E94A00AED81FE8164A775A786A765
:1007500097A7C08CD18CE28CF38CA70196010E94E4
:100760000D0B87FF24C0ED81FE81C4A6D5A6E6A6A9
:10077000F7A61DC0C301B2010E94A00AB3CF332067
:10078000B1F0ED81FE8124A135A146A157A1C70199
:10079000B6010E940D0B87FD55C08FEF9FEFED81D5
:1007A000FE819387828761E081810E94E90160E098
:1007B000ED81FE8180810E94E901ED81FE81448509
:1007C00055856685778580899189A289B38948177F
:1007D00059076A077B0709F0D0CE20A531A542A5AD
:1007E00053A564A575A586A597A50E946C0C87FDE9
:1007F000C4CEED81FE8114AA15AA16AA17AA14A6C2
:1008000015A616A617A61386128681E0B7CE0F3F4F
:100810001F4F69F631106FCF222049F2ED81FE8122
:1008200024A135A146A157A1C701B6010E940D0B15
:1008300087FD08C081E090E0ED81FE81938782878B
:1008400060E0B2CFED81FE8120A131A142A153A190
:1008500069817A818B819C810E94710CA70196012C
:100860000E94710CA70196010E94A10AED81FE81F0
:1008700064A775A786A797A7C4A0D5A0E6A0F7A0F0
:10088000A70196010E946C0C18160CF46CCF8FCF48
:10089000CF92DF92EF92FF920F931F93CF93DF934C
:1008A000EC01CCA8DDA8EEA8FFA82C8D3D8D4E8DC7
:1008B0005F8DC701B6010E94710CA70196010E94CD
:1008C000710C9B01AC0165EA74ED88EE92E50E9423
:1008D000120B6B017C0120E030E0A9010E946C0C3E
:1008E00020E030E040E05FE387FD20C0C701B601B3
:1008F0000E94A10A0E94840B0C851D852E853F85D0
:100900004A855B8514161506B4F4060F171F281FB9
:10091000391F088B198B2A8B3B8BDF91CF911F914D
:100920000F91FF90EF90DF90CF900895C701B6012F
:100930000E94A00ADFCF061B170B280B390BE9CF4B
:10094000CF93DF93EC01862F688349830E94870051
:1009500060E088810E94E90189810E94870060E04F
:100960008981DF91CF910C94E90185ED8093BC00E2
:100970008091BC0084FDFCCF1092D4010895209199
:100980007E01260F3327331F21323105ECF42091ED
:10099000D401FC0190E080E0243069F082E0089509
:1009A000A0917E012191AC01425A5E4FA40FB52F58
:1009B000B11D2C930196861798F380917E01680FE4
:1009C00060937E0180E0089581E008950895E091AC
:1009D000D8018091D701E81730F4F0E0E25CFE4FD7
:1009E000808190E008958FEF9FEF08959091D80156
:1009F0008091D7012FEF3FEF981748F4E92FF0E0EF
:100A0000E25CFE4F208130E09F5F9093D801C901E6
:100A100008958091D7019091D801891B990B089571
:100A2000CF93DF93CB01EA01642F0E94BF04CE0174
:100A3000DF91CF910895CF93DF931F92CDB7DEB7AB
:100A4000698361E0CE0101960E94BF0481E090E0DD
:100A50000F90DF91CF91089590E080E00895CF93BB
:100A6000C82F682F88E00E94E9016C2F83E00E9464
:100A7000E9016C2F8DE0CF910C94E9018EEB92E0AF
:100A80000E945A02882339F086E892E00E945A02B6
:100A90006FEF811101C060E08AE792E00C941B05C2
:100AA000CF92DF92EF92FF92CF93DF93EC01CB01D5
:100AB000BA012E813F81488559850E94710C6B01D6
:100AC0007C01CC8EDD8EEE8EFF8E25EA34ED48E67D
:100AD00053E50E94120B68A379A38AA39BA3A701E5
:100AE0009601C701B6010E94A10A0E94E40C9B0175
:100AF000AC0160E074E284E799E40E94120B6CA3FD
:100B00007DA38EA39FA323E333E343E350E40E943A
:100B1000120B68A779A78AA79BA7DF91CF91FF90B7
:100B2000EF90DF90CF9008958F929F92AF92BF92F7
:100B3000CF92DF92EF92FF920F931F93CF93DF93A9
:100B4000CDB7DEB7EDB6FEB6A090D7012091D801A3
:100B5000A216A9F1CDB6DEB62DB73EB7281B390BCC
:100B60000FB6F8943EBF0FBE2DBF0DB71EB70F5F77
:100B70001F4FB12C8091D801A81651F08AE792E05E
:100B80000E94F604F801EB0DF11D8083B394F2CFBF
:100B9000F801B0801B141CF481E00E942F05F3E0E3
:100BA000BF16F9F08EEB92E00E94480486E892E0CE
:100BB0000E9448040FB6F894DEBE0FBECDBE0FB63D
:100BC000F894FEBE0FBEEDBEDF91CF911F910F9145
:100BD000FF90EF90DF90CF90BF90AF909F908F905D
:100BE0000895F8016381062E000C770B880B990B92
:100BF0000E94BC0B4B015C012091C4023091C502E4
:100C00004091C6025091C7020E94710C9B01AC0139
:100C10002093D2023093D3024093D4025093D50252
:100C200060E074E284E799E40E94120B6093D602BC
:100C30007093D7028093D8029093D90220918C02AE
:100C400030918D0240918E0250918F02C501B40106
:100C50000E94710C9B01AC0120939A0230939B027D
:100C600040939C0250939D0260E074E284E799E413
:100C70000E94120B60939E0270939F028093A002C9
:100C80009093A102F8016481062E000C770B880B6B
:100C9000990B0E94BC0B4B015C01BC01A4018EEBC3
:100CA00092E00E945005B501A40186E892E00E94FE
:100CB0005005F8016181062E000C770B880B990B0B
:100CC0000E94BC0B2091C4023091C5024091C60223
:100CD0005091C7020E94710C4B015C0120E030E092
:100CE000A9010E946C0C20E030E040E05FE387FD4A
:100CF00059C0C501B4010E94A10A0E94840B8090D2
:100D0000CA029090CB02A090CC02B090CD02DC0140
:100D1000CB01880D991DAA1DBB1D8093CE02909317
:100D2000CF02A093D002B093D102F8016281062EC7
:100D3000000C770B880B990B0E94BC0B20918C0246
:100D400030918D0240918E0250918F020E94710C61
:100D50004B015C0120E030E0A9010E946C0C20E016
:100D600030E040E05FE387FD22C0C501B4010E948E
:100D7000A10A0E94840B009192021091930220918B
:100D8000940230919502DC01CB01800F911FA21FCC
:100D9000B31F8093960290939702A0939802B0930A
:100DA000990208CFC501B4010E94A00AA6CFC501CF
:100DB000B4010E94A00ADDCF1F920F920FB60F92CE
:100DC00011242F933F934F935F936F937F938F9350
:100DD0009F93AF93BF93EF93FF938DED91E00E94AC
:100DE0005A01FF91EF91BF91AF919F918F917F91A8
:100DF0006F915F914F913F912F910F900FBE0F9088
:100E00001F9018951F920F920FB60F9211242F93D7
:100E10008F939F93EF93FF93E091ED01F091EE019B
:100E20008081E091F301F091F40182FD1BC090817B
:100E30008091F6018F5F8F732091F701821741F047
:100E4000E091F601F0E0E352FE4F958F8093F601BA
:100E5000FF91EF919F918F912F910F900FBE0F9067
:100E60001F9018958081F4CF1F920F920FB60F92AA
:100E700011242F933F938F939F93AF93BF938091B0
:100E8000C6019091C701A091C801B091C9013091EC
:100E9000C50123E0230F2D3758F50196A11DB11D83
:100EA0002093C5018093C6019093C701A093C80108
:100EB000B093C9018091CA019091CB01A091CC015E
:100EC000B091CD010196A11DB11D8093CA019093EF
:100ED000CB01A093CC01B093CD01BF91AF919F9175
:100EE0008F913F912F910F900FBE0F901F901895EB
:100EF00026E8230F0296A11DB11DD2CF1F920F929B
:100F00000FB60F9211242F933F934F935F936F93DC
:100F10007F938F939F93AF93BF93EF93FF938091B2
:100F2000B900887F803609F44AC0F0F5883209F4A8
:100F3000A7C018F5803109F49BC0B8F4882309F4E0
:100F4000F9C0883009F494C0FF91EF91BF91AF913F
:100F50009F918F917F916F915F914F913F912F91D1
:100F60000F900FBE0F901F901895883109F488C01C
:100F7000803251F78093A10114C0803409F49DC0E0
:100F800040F48033B9F38833F9F68093A10185ECFE
:100F9000B0C0803509F485C0883509F496C088341E
:100FA00099F60E94B504D0CF883909F48CC038F581
:100FB000883729F050F4883611F0803729F683E01D
:100FC0008093D4011092A00157C0883809F47BC0E7
:100FD000803919F0803809F0B7CF8091A0018032B4
:100FE00008F071C0E091A00181E08E0F8093A00114
:100FF0008091BB00F0E0E058FE4F80833DC0803B15
:1010000039F0E0F4803A09F479C0883A09F09CCFCD
:1010100084E08093D40110927F0110927E01E091D0
:10102000D001F091D101099580917E0181110FC00D
:1010300081E080937E0110925E0109C0803C09F43A
:10104000A6CF883C09F4A3CF883B09F07DCFE0917F
:101050007F0181E08E0F80937F01F0E0E25AFE4F26
:1010600080818093BB0090917F0180917E0129C097
:101070008091C4018093BB0085EC8093BC0064CF59
:101080009091C3018091C201981758F5E091C30176
:1010900081E08E0F8093C301F0E0EE55FE4F80811A
:1010A000E9CFE091C30181E08E0F8093C30180916D
:1010B000BB00F0E0EE55FE4F80839091C30180911C
:1010C000C2019817C8F285E8D8CFE091C30181E04A
:1010D0008E0F8093C3018091BB00F0E0EE55FE4F70
:1010E00080838091D30181115CCF81E08093D20114
:1010F00084EA8093BC001092D40126CF85EC8093C3
:10110000BC001092D4018091A001803230F4E091B3
:10111000A001F0E0E058FE4F10826091A00170E065
:10112000E091CE01F091CF0180E891E00995109215
:10113000A0010ACF1092A10134CFFC0180E090E021
:10114000A8E4B3E486839783A087B18740E050E0AA
:1011500068EC71E44283538364837583138612863B
:101160001486158616861786108A118A128A138AA3
:10117000848B958BA68BB78B40E050E46CE975E4CB
:10118000408F518F628F738F848F958FA68FB78F0B
:101190008FEF96EEABE5BFE280A391A3A2A3B3A32A
:1011A00080E090E5A3E4B7E484A395A3A6A3B7A346
:1011B00089E492E8ABE8B6E480A791A7A2A7B3A719
:1011C00014AA15AA16AA17AA14A615A616A617A633
:1011D0000895EDEDF1E01382128288EE93E0A0E035
:1011E000B0E084839583A683B78324E031E0318324
:1011F000208325EC30E03587248724EC30E03787E6
:10120000268720EC30E0318B208B21EC30E0338BD3
:10121000228B22EC30E0358B248B26EC30E0378BB0
:10122000268B118E128E138E148EEAE7F2E0138253
:10123000128284839583A683B78386E191E09183AC
:1012400080838EEB92E00E949D0886E892E00C94E9
:101250009D08789484B5826084BD84B5816084BD26
:1012600085B5826085BD85B5816085BD80916E0044
:10127000816080936E001092810080918100826075
:1012800080938100809181008160809381008091B2
:1012900080008160809380008091B10084608093A1
:1012A000B1008091B00081608093B00080917A009D
:1012B000846080937A0080917A00826080937A00C3
:1012C00080917A00816080937A0080917A008068B2
:1012D00080937A001092C100E091ED01F091EE014F
:1012E00082E08083E091E901F091EA011082E091CF
:1012F000EB01F091EC0180E180831092F501E09127
:10130000F101F091F20186E08083E091EF01F0912C
:10131000F001808180618083E091EF01F091F00124
:10132000808188608083E091EF01F091F0018081FD
:1013300080688083E091EF01F091F00180818F7DE2
:1013400080831092D8011092D7011092D60110928A
:10135000D5011092D40181E08093D3011092D20183
:1013600061E082E10E94E90161E083E10E94E9011C
:101370008091B9008E7F8093B9008091B9008D7FF4
:101380008093B90088E48093B80085E48093BC0022
:1013900086EA90E09093D1018093D00182EB90E0B7
:1013A0009093CF018093CE0180E28093BA0084E9CC
:1013B00095E09093DA018093D9018EE395E09093C4
:1013C000DC018093DB0146E067E08EEB92E00E9457
:1013D000A004C12CD12C98E4E92E93E4F92EC092FC
:1013E000C402D092C502E092C602F092C702C09237
:1013F000D202D092D302E092D402F092D502812C94
:1014000020E4922E2CE9A22E25E4B22E8092D60260
:101410009092D702A092D802B092D90240E050E058
:1014200060E87FE38EEB92E00E94500544E065E0C7
:1014300086E892E00E94A004C0928C02D0928D02B5
:10144000E0928E02F0928F02C0929A02D0929B029A
:10145000E0929C02F0929D0280929E0290929F02E6
:10146000A092A002B092A10240E050E060E87FE3C9
:1014700086E892E00E94500580E00E942F058DE0F2
:101480000E94870088E00E94870083E00E94870016
:1014900045E150E064E271E08DED91E00E94DC00F6
:1014A00042E050E06AE371E08DED91E00E94DC00E3
:1014B000C0E0D0E08EEB92E00E945A02882331F027
:1014C00086E892E00E945A02811109C08EEB92E0F8
:1014D0000E94730286E892E00E947302EBCF80E0E4
:1014E0000E942F050E9435026B017C018AE0882E44
:1014F000912CA12CB12C0E9435026C197D098E090A
:101500009F09683E734081059105A8F321E0821A86
:101510009108A108B10888EEC80E83E0D81EE11C2E
:10152000F11C81149104A104B10429F7209711F250
:101530000E944601882309F4BDCF0E940000BACF63
:101540005058BB27AA270E94B80A0C94320C0E945C
:10155000240C38F00E942B0C20F039F49F3F19F432
:1015600026F40C94210C0EF4E095E7FB0C941B0C74
:10157000E92F0E94430C58F3BA17620773078407D8
:10158000950720F079F4A6F50C94650C0EF4E0951F
:101590000B2EBA2FA02D0B01B90190010C01CA012D
:1015A000A0011124FF27591B99F0593F50F4503ED8
:1015B00068F11A16F040A22F232F342F4427585FCA
:1015C000F3CF469537952795A795F0405395C9F7E2
:1015D0007EF41F16BA0B620B730B840BBAF091509A
:1015E000A1F0FF0FBB1F661F771F881FC2F70EC039
:1015F000BA0F621F731F841F48F48795779567950C
:10160000B795F7959E3F08F0B0CF9395880F08F0F7
:101610009927EE0F9795879508950E94F70B08F488
:1016200081E008950E94260B0C94320C0E942B0C32
:1016300058F00E94240C40F029F45F3F29F00C94EC
:101640001B0C51110C94660C0C94210C0E94430C41
:1016500068F39923B1F3552391F3951B550BBB27E1
:10166000AA2762177307840738F09F5F5F4F220F26
:10167000331F441FAA1FA9F335D00E2E3AF0E0E81D
:1016800032D091505040E695001CCAF72BD0FE2F67
:1016900029D0660F771F881FBB1F261737074807FB
:1016A000AB07B0E809F0BB0B802DBF01FF279358B3
:1016B0005F4F3AF09E3F510578F00C941B0C0C9450
:1016C000660C5F3FE4F3983ED4F386957795679573
:1016D000B795F7959F5FC9F7880F911D96958795E8
:1016E00097F90895E1E0660F771F881FBB1F621707
:1016F00073078407BA0720F0621B730B840BBA0BC5
:10170000EE1F88F7E09508950E948B0B6894B11145
:101710000C94660C08950E944B0C88F09F5798F02B
:10172000B92F9927B751B0F0E1F0660F771F881FE6
:10173000991F1AF0BA95C9F714C0B13091F00E9400
:10174000650CB1E008950C94650C672F782F8827FD
:10175000B85F39F0B93FCCF3869577956795B39527
:10176000D9F73EF490958095709561957F4F8F4F96
:101770009F4F0895E89409C097FB3EF4909580959B
:10178000709561957F4F8F4F9F4F9923A9F0F92F47
:1017900096E9BB279395F695879577956795B795C5
:1017A000F111F8CFFAF4BB0F11F460FF1BC06F5FAB
:1017B0007F4F8F4F9F4F16C0882311F096E911C0BD
:1017C000772321F09EE8872F762F05C0662371F0DE
:1017D00096E8862F70E060E02AF09A95660F771FF2
:1017E000881FDAF7880F9695879597F90895990FCE
:1017F0000008550FAA0BE0E8FEEF16161706E807DB
:10180000F907C0F012161306E407F50798F0621BFB
:10181000730B840B950B39F40A2661F0232B242BD0
:10182000252B21F408950A2609F4A140A6958FEFEF
:10183000811D811D089597F99F6780E870E060E041
:1018400008959FEF80EC089500240A941616170659
:1018500018060906089500240A94121613061406A1
:1018600005060895092E0394000C11F4882352F004
:10187000BB0F40F4BF2B11F460FF04C06F5F7F4FBC
:101880008F4F9F4F089557FD9058440F551F59F0A3
:101890005F3F71F04795880F97FB991F61F09F3F5D
:1018A00079F087950895121613061406551FF2CF86
:1018B0004695F1DF08C0161617061806991FF1CFD6
:1018C00086957105610508940895E894BB276627FD
:1018D0007727CB0197F908950E94F70B08F48FEF53
:1018E00008950E94840C0C94320C0E94240C38F051
:1018F0000E942B0C20F0952311F00C941B0C0C94DF
:10190000210C11240C94660C0E94430C70F3959FDB
:10191000C1F3950F50E0551F629FF001729FBB27E6
:10192000F00DB11D639FAA27F00DB11DAA1F649F82
:101930006627B00DA11D661F829F2227B00DA11D35
:10194000621F739FB00DA11D621F839FA00D611DBB
:10195000221F749F3327A00D611D231F849F600DDC
:10196000211D822F762F6A2F11249F5750409AF005
:10197000F1F088234AF0EE0FFF1FBB1F661F771F91
:10198000881F91505040A9F79E3F510580F00C945C
:101990001B0C0C94660C5F3FE4F3983ED4F38695E1
:1019A00077956795B795F795E7959F5FC1F7FE2BFC
:1019B000880F911D9695879597F9089519F416F457
:1019C0000C94210C0C94240D0E944B0CB8F3992319
:1019D000C9F3B6F39F57550B87FF0E94320D0024C1
:1019E000A0E640EA900180585695979528F4805CCF
:1019F000660F771F881F20F026173707480730F437
:101A0000621B730B840B202931294A2BA69517944E
:101A10000794202531254A2758F7660F771F881F1E
:101A200020F026173707480730F4620B730B840B3E
:101A3000200D311D411DA09581F7B901842F9158CA
:101A4000880F9695879508959F3F31F0915020F427
:101A5000879577956795B795880F911D969587958A
:101A600097F9089591505040660F771F881FD2F75D
:101A70000895EE0FFF1F0590F491E02D0994F8945E
:021A8000FFCF96
:101A8200000000007C01DC000901C9013A011801D3
:101A92002C01000000001B0510052C05E6040905B9
:101AA200F604E7044472697665207375627379738C
:0E1AB20074656D207265616479000D0A000094
:00000001FF
